:020000040800F2
:1000000000100020F91000084111000841110008FB
:1000100041110008411100084111000800000000D2
:100020000000000000000000000000004111000876
:1000300041110008000000004111000841110008B2
:1000400000000000000000000000000000000000B0
:1000500000000000000000000000000000000000A0
:100060000000000000000000000000000000000090
:100070000000000000000000000000000000000080
:100080000000000000000000000000000000000070
:100090000000000000000000000000000000000060
:1000A0000000000000000000000000000000000050
:1000B0000000000000000000000000000000000040
:1000C0000000000000000000000000000000000030
:1000D0000000000000000000000000000000000020
:1000E0000000000000000000000000000000000010
:1000F0000000000000000000000000000000000000
:1001000000000000000000000000000000000000EF
:1001100000000000000000000000000000000000DF
:1001200000000000000000000000000000000000CF
:1001300000000000000000000000000000000000BF
:1001400000000000000000000000000000000000AF
:10015000000000000000000000000000000000009F
:10016000000000000000000000000000000000008F
:10017000000000000000000000000000000000007F
:08018000000000000000000077
:10018800054B0648033310B51B1A062B03D9044B3D
:10019800002B00D0984710BD040000200400002068
:1001A800000000000648074910B5091A8910CB0F4E
:1001B8005918491003D0044B002B00D0984710BDA4
:1001C80004000020040000200000000010B5074CC7
:1001D8002378002B09D1FFF7D3FF054B002B02D062
:1001E800044800E000BF0123237010BD0400002074
:1001F8000000000044110008094B10B5002B03D083
:100208000849094800E000BF08480368002B02D1EC
:10021800FFF7C8FF10BD064B002BF9D09847F7E74A
:10022800000000000800002044110008040000201D
:100238000000000002B4714649084900095C490001
:100248008E4402BC7047C046002243088B4274D3D8
:1002580003098B425FD3030A8B4244D3030B8B42BF
:1002680028D3030C8B420DD3FF22090212BA030CC8
:100278008B4202D31212090265D0030B8B4219D3A9
:1002880000E0090AC30B8B4201D3CB03C01A5241C9
:10029800830B8B4201D38B03C01A5241430B8B4211
:1002A80001D34B03C01A5241030B8B4201D30B03FA
:1002B800C01A5241C30A8B4201D3CB02C01A524121
:1002C800830A8B4201D38B02C01A5241430A8B42E4
:1002D80001D34B02C01A5241030A8B4201D30B02CD
:1002E800C01A5241CDD2C3098B4201D3CB01C01AE7
:1002F800524183098B4201D38B01C01A52414309F1
:100308008B4201D34B01C01A524103098B4201D3DE
:100318000B01C01A5241C3088B4201D3CB00C01A4B
:10032800524183088B4201D38B00C01A52414308C3
:100338008B4201D34B00C01A5241411A00D20146E8
:10034800524110467047FFE701B5002000F006F85B
:1003580002BDC0460029F7D076E770477047C0460F
:1003680070B50D4E0D4D0024AD1BAD1005D0A3008A
:10037800F35801349847A542F9D100F0DFFE084E42
:10038800084D0024AD1BAD1005D0A300F35801346F
:100398009847A542F9D170BD7C1200087C1200086C
:1003A8007C12000880120008F0B505000F2A2FD92A
:1003B8000B0003439B0734D116000C000300103ECA
:1003C800350901352D01451927681F6067685F6089
:1003D800A7689F60E7681034DF6010339D42F3D14F
:1003E8000F239E431036851989191340032B1AD9F8
:1003F8001E1F0023B4080134A400CF58EF50043363
:10040800A342FAD10324A643331D2240C918ED188C
:10041800002A05D00023CC5CEC5401339342FAD176
:10042800F0BD0500F6E71A00F2E7C046002382B0E7
:10043800054A0193019B934201D902B07047019B81
:1004480001330193F6E7C046FE0F000010B5040023
:100458002078013400F05AF92378002BF8D110BD28
:10046800F8B504000E0005002B1B9E4204DC002397
:10047800A419013C23700AE000F030F92F0028701D
:100488000028F9D001350A28EED100233B70F8BDC9
:1004980030B58DB002AC00F065F800F08FF800F0D0
:1004A800CDF8062224492000FFF77EFF2348FFF7F6
:1004B800CDFF2348FFF7CAFFFFF7B8FF2148FFF732
:1004C800C5FFFFF7B3FF2048FFF7C0FFFFF7AEFFF8
:1004D8001E48FFF7BBFFFFF7A9FF1D48FFF7B6FF50
:1004E8001C48FFF7B3FF04AD00F0F0F81A48FFF717
:1004F800ADFF20212800FFF7B3FF00F0DFF800234D
:10050800E15CEA5C914214D10133062BF8D113481F
:10051800FFF79CFF0CE0019B01330193019B002B2B
:10052800F9DDFFF783FFFFF781FF0D48FFF78EFF27
:10053800FEE70023F1E7C0467612000860110008C4
:1005480083110008A0110008BD110008DA11000885
:10055800F7110008FA110008291200085C120008B7
:100568004D120008F0B59027002401250326042326
:1005780097B0FF0505A938000593069507940896D6
:1005880000F046FB102305A938000593069507944B
:10059800089600F03DFB05230AA80B930A960D94D4
:1005A800139400F0C9F80723210001A801930295CC
:1005B8000394049400F0A2FA17B0F0BD802170B53E
:1005C8001B4C8902626988B00A43626163699020A2
:1005D8000B400193019BC023DB00039301250223F9
:1005E800032603A9C005049305950795069600F010
:1005F8000FFB8021A269C9010A43A261A3690D48C2
:100608000B400293029B236BB3431D430A4B2563A4
:10061800036096231B02436000238360C360036169
:1006280083610C33436100F055FC08B070BDC046CF
:1006380000100240240000200038014080201E4A9B
:10064800F0B55169800201435161536987B0034095
:1006580090240093012500260327009B8023E405AE
:1006680001A92000019302950396049700F0D0FA9F
:10067800102301A92000019302950396049700F026
:10068800C7FA042301A92000019302950396049751
:1006980000F0BEFA32002000802100F069FB2A0039
:1006A8002000102100F064FB2A000421200000F043
:1006B8005FFB07B0F0BDC04600100240902010B5A7
:1006C80001228021C00500F053FB10BD902010B519
:1006D80000228021C00500F04BFB10BD37B508256E
:1006E8006B46DC1D012232232100064800F024FC61
:1006F800002801D120783EBD034A136A2B431362B8
:10070800EEE7C046240000200038014007B56B46DC
:10071800D91D0870024B0122024800F083FC07BD76
:100728008813000024000020024B1868421C1A603D
:100738007047C04620000020F0B5036885B005006A
:10074800DB072FD42B689B0700D581E02B681B079C
:1007580000D5BCE02B685B0700D5DFE02B68DB0623
:100768001AD56A69B54C0423012A00D04BE1616BA4
:1007780002260B436363636B1A436263FFF7D4FF7C
:100788000700636B334200D136E1F821626BAB6935
:100798008A43DB0013436363296A002900D059E1C7
:1007A800002013E00C21A54C62680A40042A06D0F8
:1007B80063680B40082B0BD16368DB0308D52368FB
:1007C8009B03BFD56B68002BBCD1012005B0F0BDE1
:1007D8006B68012B13D1802322685B0213432360CB
:1007E800FFF7A2FF80260700B60223683342A9D18B
:1007F800FFF79AFFC01B6428F7D90320E6E7002B10
:1008080016D123688E4A80261340236023688D4AB8
:10081800B60213402360FFF787FF070023683342BF
:1008280000D18FE7FFF780FFC01B6428F6D9E4E703
:10083800052B05D180232268DB0213432360CAE716
:1008480023687F4A1340236023687E4A1340C6E723
:100858000C227A4C6368134206D063681340082B55
:1008680010D16368DB030DD423689B0702D5EB68BE
:10087800012BAAD1F82122682B698A43DB00134394
:10088800236063E7EA680123002A0FD02268022662
:1008980013432360FFF748FF070023683342E9D179
:1008A800FFF742FFC01B0228F7D9A6E722680226F5
:1008B8009A432260FFF738FF07002368334200D1CC
:1008C80044E7FFF731FFC01B0228F6D995E7EA692C
:1008D80001235A4C002A10D0626A0226134363622D
:1008E800FFF722FF0700636A334200D032E7FFF7C1
:1008F8001BFFC01B0228F6D97FE7626A02269A43CB
:100908006262FFF711FF0700636A334200D121E7F3
:10091800FFF70AFFC01B0228F6D96EE780220021E4
:10092800464C5205E3690091134208D1E369134329
:10093800E361E36913400393039B0123009380273A
:10094800414E7F0033683B4206D0AB68012B13D180
:10095800226A1343236230E033683B433360FFF776
:10096800E3FE019033683B42EFD1FFF7DDFE019BC8
:10097800C01A6428F6D940E70122002B14D1236A53
:10098800022793432362236A033293432362FFF7C8
:10099800CBFE0600236A3B4225D0FFF7C5FE2B4B52
:1009A800801B9842F6D928E7052B0BD1216A013B19
:1009B8000B432362236A1A432262FFF7B5FE02271C
:1009C80006000DE0236A934304222362236A9343BB
:1009D800C0E7FFF7A9FE1D4B801B984200D90CE722
:1009E800236A3B42F5D0009B012B00D0B6E6E369B1
:1009F800174A1340E361B1E6FFF796FEC01B0228D1
:100A080000D8BEE6F9E6053203D1626B9A43626309
:100A1800BBE6626B0226134301226363636B934355
:100A28006363FFF781FE0700636B334200D1B3E6CF
:100A3800FFF77AFEC01B0228F6D9DEE60010024056
:100A4800FFFFFEFFFFFFFBFF007000408813000060
:100A5800FFFFFFEF0C22264C012063681340082B90
:100A680000D1B3E62368234A1340236002292FD11B
:100A7800FFF75AFE80260700B6042368334221D1C7
:100A88000F22E36A9343EA6A1343E362696AAB6A33
:100A980062680B43184980250A401343636080232A
:100AA80022685B0413432360FFF73EFE0600AD0493
:100AB80023682B4200D073E6FFF736FE801B02281E
:100AC800F6D99AE6FFF730FEC01B0228D5D994E67E
:100AD800FFF72AFE80250600AD0423682B4200D1CB
:100AE8005EE6FFF721FE801B0228F6D985E6C046A0
:100AF80000100240FFFFFFFEFFFFC2FFF7B5012213
:100B08003E4C060023680F0013408B4212D3326814
:100B1800930719D4D3071FD4012322681A40974298
:100B28005DD333685B0761D4E122354BD2031A6089
:100B3800002008E0236893430B4323602368134095
:100B48009942E4D00120FEBDF0202E494B68834332
:100B5800B06803434B60DDE72A4D72682B68012AB1
:100B68001AD19B03EED503216B688B4313436B604B
:100B7800FFF7DAFD73680190012B15D10C226B6821
:100B88001340042BC8D0FFF7CFFD019BC01A1E4BA2
:100B98009842F3D90320D6E7022A02D19B01E2D476
:100BA800D0E79B07DFD4CDE7022B12D00C226B686D
:100BB8001342B1D0FFF7B8FD019BC01A124B9842FF
:100BC800F4D9E7E7FFF7B0FD019BC01A0E4B984236
:100BD800E0D80C226B681340082BF3D19CE72268FD
:100BE8009A43226022681A42ACD19AE7054A07491B
:100BF80053680B40F1680B43536095E700200240AF
:100C0800000000200010024088130000FFF8FFFFDA
:100C1800F0B50B6887B0029300230191029ADA407D
:100C280001D107B0F0BD01229A4003920399029ABC
:100C38000A40009200D18CE0019A102152681600F7
:100C48008E43022E0ED107251D40AD000139A94063
:100C5800DC08A4000419276A8F4301990969A9408F
:100C68000F43276203245F00BC40E4430568013E4C
:100C78002540AC4603251540BD4061460D4305603F
:100C8800012E0FD801998668CD682640BD403543AE
:100C980085604668039915098E4301210D409D40E2
:100CA80035434560C56801992C408D688021BD4059
:100CB80049052C43C4600A424BD00121264C032627
:100CC800A5691E400D43A561A4699D080C400594C3
:100CD800059C0F242149AD00B6006D18B440902141
:100CE800AF68C905A743002488420CD01C490134C9
:100CF800884208D01B490134884204D01A49033479
:100D0800884200D1023CB44000993C430E00AC60DC
:100D1800164CCD4327683E43D10301D43E002E40F4
:100D280026606768009E3E43910301D43E002E4032
:100D38006660A768009E3E43D10201D43E002E4063
:100D4800A660E668009F3743920201D42E40370020
:100D5800E760013362E7C04600100240000001402E
:100D68000004004800080048000C00480004014046
:100D7800002A01D0816170478162FCE7F8B5040060
:100D88000E0015001F002268D36933409B1B59428F
:100D98004B41AB4201D0002018E0069B0133F3D051
:100DA800069B002B13D123680C491A6803200A40BC
:100DB8001A609A68A331FF318A439A60220020237F
:100DC800693213705370002368342370F8BDFFF73D
:100DD800ABFC069BC01B8342D5D2E4E75FFEFFFF56
:100DE800030070B59A681D6904682A435D69C16982
:100DF8002A432068304D0A43284002432260626833
:100E08002E481D6A0240D868024362609A69A06849
:100E18002A432B4D284002430320A260294A126B23
:100E280002402948805C80221202914225D108287C
:100E380020D8FFF7FFF9151F051F151F1F1F1A00E0
:100E48005968224B4808C018FFF7FEF983B2002002
:100E580019000F221B0791435B0F0B43E36070BD22
:100E68005968E12348081B04EDE7596880234808BE
:100E78005B02E8E701200023EAE708281AD8FFF711
:100E8800D9F90F1905190F19191914005968104BB8
:100E98004808C018FFF7D8F980B2E0600020DEE704
:100EA8005968E1234808DB03F3E7596880234808B9
:100EB8001B02EEE70120D2E7F369FFFFFFCFFFFF38
:100EC800FFF4FFFF001002405C1100080048E80131
:100ED8000024F40070B5041E01D1012070BD050086
:100EE80069352B78DBB2002B02D10200683213700F
:100EF8002423012622682B7013682000B343136053
:100F0800FFF76EFFB042E8D023680A495A6800200C
:100F18000A4008215A609A688A439A601A681643F8
:100F280022001E602023E0666A3268342B7013703A
:100F38002070D3E7FFF7FFFFF0B51F0003006A3307
:100F480016001A78040085B00D000220202A39D135
:100F58000138002936D0002E34D08022A1685201F1
:100F6800914204D12269002A01D105422AD12200E6
:100F7800683211780220012924D001211170002241
:100F8800E26622321A70FFF7CFFB23008021A268A5
:100F980058331E805E800390490104338A4215D17C
:100FA8002269002A10D11E4A1A801E8822005A324D
:100FB800108880B2002810D1230020226A336834B8
:100FC8001A70207005B0F0BDFF22EDE7002AECD1C1
:100FD8002269002AF8D07F22E6E713882021013B06
:100FE8009BB2138020000097039B0022FFF7C6FEE8
:100FF800002813D1A268236811008022520191426F
:1010080007D12269002A04D19B8C33402B800235FA
:10101800CCE79B8C33402B700135C7E70320D1E721
:10102800FF010000F0B5070085B0039369373B78EE
:1010380004000D0016000220202B46D1013800299B
:1010480043D0002A41D08023A2685B019A4204D190
:101058002369002B01D1014237D1230068331A7864
:101068000220012A31D001221A700023E3662133BD
:101078003B70FFF759FB230050331E805E808026AB
:1010880002907601210052310A8892B2002A0DD1CD
:10109800039B402100932000029BFFF76FFE00286E
:1010A80012D1202368343B7020700EE00B88002298
:1010B800013B9BB20B80039B802100932000029B85
:1010C800FFF75CFE002802D0032005B0F0BDA3683E
:1010D8002268B34208D12369002B05D12B88023539
:1010E800DB05DB0D1385CDE72B7801351385C9E7C3
:1010F800002103E00B4B5B58435004310A480B4B6B
:1011080042189A42F6D30A4A02E0002313600432D6
:10111800084B9A42F9D300E000BFFFF721F9FFF727
:10112800B7F9FEE784120008000000200400002040
:101138000400002094000020FEE70000F8B5C04637
:10114800F8BC08BC9E467047F8B5C046F8BC08BC59
:041158009E467047F8
:10115C00000408022A2A2A2A2A536166652D6F2D5B
:10116C006D61746963203330303020426F6F746965
:10117C006E672E2E2E0A00416C69676E696E6720B1
:10118C00626974732E2E2E2E2E2E2E2E5B444F4EF5
:10119C00455D0A00436865636B696E672043657340
:1011AC0069756D20524E472E2E5B444F4E455D0A9D
:1011BC00004D6173717565726164696E6720666C50
:1011CC006173682E2E2E5B444F4E455D0A004465BC
:1011DC006372797074696E672064617461626173A3
:1011EC00652E2E5B444F4E455D0A000A0A0057419E
:1011FC00524E494E473A20554E415554484F52494C
:10120C005A4544204143434553532057494C4C20A5
:10121C0042452050554E49534845440A00506C6590
:10122C0061736520656E7465722070617373776F7E
:10123C00726420746F20636F6E74696E75653A20EA
:10124C000050415353574F5244204641494C0A00D9
:10125C00416363657373206772616E7465642C20DF
:10126C0057656C636F6D65210A00683070783300C8
:04127C000102000863
:04128000D50100088C
:0412840000127A00DA
:04000005080010F9E6
:00000001FF
